S01200004D696C6573746F6E65332E737265632F
S11300000C9434000C9485010C94D6010C9451008A
S11300100C9451000C9451000C9451000C944D011B
S11300200C9451000C9451000C9451000C94510008
S11300300C9451000C9451000C9451000C945100F8
S11300400C9451000C9451000C9451000C945100E8
S11300500C9451000C9421010C9451000C94510007
S11300600C9451000C94510011241FBECFEFD8E022
S1130070DEBFCDBF11E0A0E0B1E0E6E6F4E002C0EF
S113008005900D92A830B107D9F721E0A8E0B1E0BE
S113009001C01D92AA31B207E1F70E9427020C9415
S11300A031020C940000ECE7F0E080E4808380816E
S11300B080628083EAE7F0E080E880838081806268
S11300C08083808188608083808187608083808151
S11300D080648083089582E08093B0008093B100AF
S11300E08093700084E18093B300089583E08DBB16
S11300F085E080936900089586E084B982EA80935C
S11301008000E1E8F0E088E1808380818260808380
S113011080E49CE990938700809386000895809101
S1130120040190910501A0910601B09107018F3F50
S11301302FEF9207A207B20709F441C040910001D2
S11301405091010160910201709103014F3F2FEF23
S113015052076207720799F1841B950BA60BB70B24
S11301604FEF5FEFBA014093040150930501609390
S113017006017093070140930001509301016093BD
S113018002017093030183339105A105B1053CF08D
S113019081E090E0909309018093080108958E3CDA
S11301A09F4FAF4FBF4F3CF48FEF9FEF90930901E8
S11301B0809308010895109209011092080108958E
S11301C0CF93DF93D82FC92F0E948F008D2F9C2FA0
S11301D0992314F480E090E08C3E910514F08BEEAA
S11301E090E020910801309109012130310551F04E
S11301F09C0122953295307F3227207F3227285167
S11302003C4F02C028EE33E03093890020938800ED
S113021020910801309109012F3F3F4F49F0829509
S11302209295907F9827807F982788519C4F02C091
S113023088EE93E090938B0080938A00DF91CF91B6
S113024008951F920F920FB60F9211242F933F938C
S11302504F935F936F937F938F939F93AF93BF93CA
S1130260EF93FF939091790020E830E0A901491BB6
S11302705109CA010E94E000FF91EF91BF91AF9133
S11302809F918F917F916F915F914F913F912F91AA
S11302900F900FBE0F901F9018951F920F920FB6DC
S11302A00F9211248F939F93AF93BF938091160164
S11302B090911701A0911801B09119010196A11D07
S11302C0B11D8093160190931701A0931801B09368
S11302D019018091120190911301A0911401B09120
S11302E015010196A11DB11D809312019093130174
S11302F0A0931401B0931501BF91AF919F918F9179
S11303000F900FBE0F901F9018951F920F920FB66B
S11303100F9211244F935F936F937F938F939F93C7
S1130320AF93BF934A9B11C080911601909117011E
S1130330A0911801B091190180930E0190930F01BF
S1130340A0931001B093110124C0809116019091E3
S11303501701A0911801B091190140910E0150911B
S11303600F016091100170911101841B950BA60B74
S1130370B70B8093040190930501A0930601B093F9
S11303800701109216011092170110921801109291
S11303901901BF91AF919F918F917F916F915F915F
S11303A04F910F900FBE0F901F9018951F920F92B0
S11303B00FB60F9211244F935F936F937F938F9394
S11303C09F93AF93BF934B9B11C080911201909167
S11303D01301A0911401B091150180930A01909327
S11303E00B01A0930C01B0930D0124C08091120164
S11303F090911301A0911401B091150140910A014B
S113040050910B0160910C0170910D01841B950BAF
S1130410A60BB70B8093000190930101A0930201F6
S1130420B09303011092120110921301109214015F
S113043010921501BF91AF919F918F917F916F9110
S11304405F914F910F900FBE0F901F9018950E94CF
S113045053000E946B000E9476000E947C007894F6
S1090460FFCFF894FFCF6A
S10B0466FFFFFFFFFFFFFFFF92
S9030000FC
