S01200004D696C6573746F6E65332E737265632F
S11300000C9434000C941E010C946F010C94510058
S11300100C9451000C9451000C9451000C94A200C7
S11300200C9451000C9451000C9451000C94510008
S11300300C9451000C9451000C9451000C945100F8
S11300400C9451000C9451000C9451000C945100E8
S11300500C9451000C94DA000C9451000C9451004F
S11300600C9451000C94510011241FBECFEFD8E022
S1130070DEBFCDBF11E0A0E0B1E0E8E9F3E002C0EB
S113008005900D92A430B107D9F721E0A4E0B1E0C6
S113009001C01D92A631B207E1F70E94C0010C9481
S11300A0CA010C940000ECE7F0E080E480838081D6
S11300B080628083EAE7F0E080E880838081806268
S11300C08083808188608083808187608083808151
S11300D080648083089582E08093B0008093B100AF
S11300E08093700084E18093B300089583E08DBB16
S11300F085E08093690008956115710521F06130F0
S1130100710521F005C022E025B902C024E025B91B
S1130110E7EDF4E03197F1F700C000001816190676
S11301205CF420E030E0F5E1FA95F1F700002F5F90
S11301303F4F82179307B9F715B845E14A95F1F790
S1130140000008951F920F920FB60F9211248F93FF
S11301509F93AF93BF938091120190911301A0914B
S11301601401B09115010196A11DB11D80931201D6
S113017090931301A0931401B093150180910E0183
S113018090910F01A0911001B09111010196A11D50
S1130190B11D80930E0190930F01A0931001B093B1
S11301A01101BF91AF919F918F910F900FBE0F904E
S11301B01F9018951F920F920FB60F9211242F9330
S11301C03F934F935F936F937F938F939F93AF93DB
S11301D0BF93CF93DF93EF93FF938091790090E0E7
S11301E0209104013091050182179307A1F0C9E71A
S11301F0D0E0888160E070E090E00E947C0088811B
S113020061E070E090E00E947C00888190E090932F
S1130210050180930401FF91EF91DF91CF91BF918C
S1130220AF919F918F917F916F915F914F913F918A
S11302302F910F900FBE0F901F9018951F920F9241
S11302400FB60F9211244F935F936F937F938F9305
S11302509F93AF93BF934A9B11C0809112019091D9
S11302601301A0911401B091150180930A01909398
S11302700B01A0930C01B0930D0124C080911201D5
S113028090911301A0911401B091150140910A01BC
S113029050910B0160910C0170910D01841B950B21
S11302A0A60BB70B8093000190930101A093020168
S11302B0B0930301109212011092130110921401D1
S11302C010921501BF91AF919F918F917F916F9182
S11302D05F914F910F900FBE0F901F9018951F9232
S11302E00F920FB60F9211244F935F936F937F93E6
S11302F08F939F93AF93BF934B9B11C080910E013B
S113030090910F01A0911001B09111018093060109
S113031090930701A0930801B093090124C0809130
S11303200E0190910F01A0911001B0911101409123
S11303300601509107016091080170910901841B25
S1130340950BA60BB70B8093000190930101A0932A
S11303500201B093030110920E0110920F0110924A
S1130360100110921101BF91AF919F918F917F91D4
S11303706F915F914F910F900FBE0F901F90189542
S11303800E9453000E946B000E94760086E084B9AC
S10B03907894FFCFF894FFCF2D
S1070398A086010036
S9030000FC
