S01200004D696C6573746F6E65332E737265632F
S11300000C9434000C9484010C94D5010C9451008C
S11300100C9451000C9451000C9451000C944C011C
S11300200C9451000C9451000C9451000C94510008
S11300300C9451000C9451000C9451000C945100F8
S11300400C9451000C9451000C9451000C945100E8
S11300500C9451000C9420010C9451000C94510008
S11300600C9451000C94510011241FBECFEFD8E022
S1130070DEBFCDBF11E0A0E0B1E0E4E6F4E002C0F1
S113008005900D92A830B107D9F721E0A8E0B1E0BE
S113009001C01D92AA31B207E1F70E9426020C9416
S11300A030020C940000ECE7F0E080E4808380816F
S11300B080628083EAE7F0E080E880838081806268
S11300C08083808188608083808187608083808151
S11300D080648083089582E08093B0008093B100AF
S11300E08093700084E18093B300089583E08DBB16
S11300F085E080936900089586E084B9E0E8F0E043
S11301008081826A8083E1E8F0E080818861808375
S113011080818260808380E49CE99093870080934F
S1130120860008958091040190910501A091060133
S1130130B09107018F3F2FEF9207A207B20771F02A
S113014040910001509101016091020170910301FD
S11301504F3F2FEF52076207720729F4809108017D
S1130160909109010895841B950BA60BB70B4FEFD3
S11301705FEFBA01409304015093050160930601B7
S113018070930701409300015093010160930201B1
S113019070930301181619061A061B065CF08827CB
S11301A0B7FD83959927AA27BB2722273327281B26
S11301B0390B02C021E030E030930901209308019B
S11301C0822F932F0895CF93DF93D82FC92F0E94A6
S11301D092002D2F3C2F332314F420E030E02C3EEA
S11301E0310514F02BEE30E081309105F9F0A901CE
S11301F042955295507F5427407F542748515C4F75
S11302005093890040938800019649F022953295D5
S1130210307F3227207F322728513C4F02C028EEFE
S113022033E030938B0020938A0007C088EE93E07C
S11302309093890080938800E9CFDF91CF9108954E
S11302401F920F920FB60F9211242F933F934F9347
S11302505F936F937F938F939F93AF93BF93EF932A
S1130260FF939091790020E830E0A901491B5109DE
S1130270CA010E94E300FF91EF91BF91AF919F915A
S11302808F917F916F915F914F913F912F910F903B
S11302900FBE0F901F9018951F920F920FB60F92DA
S11302A011248F939F93AF93BF93809116019091E4
S11302B01701A0911801B09119010196A11DB11D5A
S11302C08093160190931701A0931801B09319011C
S11302D08091120190911301A0911401B091150124
S11302E00196A11DB11D8093120190931301A09357
S11302F01401B0931501BF91AF919F918F910F900D
S11303000FBE0F901F9018951F920F920FB60F9269
S113031011244F935F936F937F938F939F93AF9326
S1130320BF934A9B11C08091160190911701A0912F
S11303301801B091190180930E0190930F01A093BD
S11303401001B093110124C08091160190911701FE
S1130350A0911801B091190140910E0150910F0123
S11303606091100170911101841B950BA60BB70BC2
S11303708093040190930501A0930601B0930701B3
S1130380109216011092170110921801109219017F
S1130390BF91AF919F918F917F916F915F914F9199
S11303A00F900FBE0F901F9018951F920F920FB6CB
S11303B00F9211244F935F936F937F938F939F9327
S11303C0AF93BF934B9B11C0809112019091130185
S11303D0A0911401B091150180930A0190930B012F
S11303E0A0930C01B0930D0124C08091120190914F
S11303F01301A0911401B091150140910A0150918B
S11304000B0160910C0170910D01841B950BA60BDF
S1130410B70B8093000190930101A0930201B09364
S11304200301109212011092130110921401109200
S11304301501BF91AF919F918F917F916F915F91C2
S11304404F910F900FBE0F901F9018950E9453006C
S11304500E946B000E9476000E947C007894FFCF7B
S1070460F894FFCF3A
S10B0464FFFFFFFFFFFFFFFF94
S9030000FC
