:100000000C9434000C94C0000C9451000C945100DA
:100010000C9451000C9451000C9451000C9451001C
:100020000C9451000C9451000C9451000C9451000C
:100030000C9451000C9451000C94ED000C94510060
:100040000C9451000C9451000C9451000C945100EC
:100050000C9451000C9451000C9451000C945100DC
:100060000C9451000C94510011241FBECFEFD8E026
:10007000DEBFCDBF11E0A0E0B1E0E4E2F2E002C0FB
:1000800005900D92A230B107D9F721E0A2E0B1E0CE
:1000900001C01D92A430B207E1F70E9483000C94C6
:1000A00010010C9400008DE084B985B98EE084B90C
:1000B00085B92FEF8DE399E4215080409040E1F71E
:1000C00000C0000084E08BB981E08DBB1092690014
:1000D000089584B7877F84BFE0E6F0E0808188617F
:1000E000808381E2808380818064808384B7877F7E
:1000F00084BF089582E084BD93EC97BD80936E0029
:1001000085E085BD08950E9453000E9469000E9409
:100110007A00789422E025B9809100019091010144
:10012000019751F43FEF80E792E0315080409040DA
:10013000E1F700C0000009C03FEF83EC99E03150C7
:1001400080409040E1F700C0000015B880910001A8
:1001500090910101019751F43FEF80E792E0315017
:1001600080409040E1F700C00000D5CF3FEF83EC26
:1001700099E0315080409040E1F700C00000CBCFC3
:100180001F920F920FB60F9211242F938F939F936C
:100190008091000190910101019729F410920101D1
:1001A0001092000106C081E090E0909301018093DD
:1001B0000001F894A8952FEF89E698E1215080403E
:1001C0009040E1F700C0000078949F918F912F91AB
:1001D0000F900FBE0F901F9018951F920F920FB6A1
:1001E0000F9211248F939F938091020190910301AC
:1001F0000196853691052CF49093030180930201BA
:1002000008C0109203011092020195B188E089277D
:1002100085B99F918F910F900FBE0F901F901895E9
:04022000F894FFCF80
:020224000100D7
:00000001FF
