S01200004D696C6573746F6E65332E737265632F
S11300000C9434000C9451000C9451000C94510045
S11300100C9451000C942E010C9451000C945E002D
S11300200C9451000C9451000C9451000C94510008
S11300300C9451000C9451000C9451000C945100F8
S11300400C9451000C9451000C9451000C945100E8
S11300500C9451000C94B6000C9451000C94510073
S11300600C9451000C94510011241FBECFEFD8E022
S1130070DEBFCDBF11E0A0E0B1E0E8E0F6E002C0F1
S113008005900D92A430B107D9F721E0A4E0B1E0C6
S113009001C01D92AC30B207E1F70E947F010C94BD
S11300A002030C94000082E08093B0008093B100BE
S11300B08093700081E08093B30008951F920F92A3
S11300C00FB60F9211248F939F93AF93BF93809198
S11300D0080190910901A0910A01B0910B010196C8
S11300E0A11DB11D8093080190930901A0930A01F9
S11300F0B0930B01BF91AF919F918F910F900FBE61
S11301000F901F901895CF93DF93EC0187BDBC012E
S1130110990F880B990B0E9429020E94B50220E0D6
S113012030E040EF52E40E948C010E94F801709389
S113013089006093880060E071E06C1B7D0B072EE2
S1130140000C880B990B0E9429020E94B50220E042
S113015030E040EF52E40E948C010E94F801709359
S11301608B0060938A00DF91CF9108951F920F92C4
S11301700FB60F9211242F933F934F935F936F9376
S11301807F938F939F93AF93BF93EF93FF93F894D1
S11301908091790090E00E9483008FE99FE00197AD
S11301A0F1F700C000007894FF91EF91BF91AF91F7
S11301B09F918F917F916F915F914F913F912F917B
S11301C00F900FBE0F901F901895459A80910001D3
S11301D090910101A0910201B0910301892B8A2B16
S11301E08B2BB9F080E090E0DC0125E02A95F1F753
S11301F000000196A11DB11D409100015091010123
S1130200609102017091030184179507A607B7074F
S113021060F318B88091000190910101A09102014E
S1130220B0910301892B8A2B8B2BB9F080E090E0ED
S1130230DC0125E02A95F1F700000196A11DB11D0E
S113024040910001509101016091020170910301FC
S113025084179507A607B70760F308951F920F92B6
S11302600FB60F9211244F935F936F937F938F93E5
S11302709F93AF93BF934A9B11C0809108019091C3
S11302800901A0910A01B0910B018093040190939C
S11302900501A0930601B093070124C080910801D1
S11302A090910901A0910A01B0910B0140910401C0
S11302B0509105016091060170910701841B950B13
S11302C0A60BB70B8093000190930101A093020148
S11302D0B0930301109208011092090110920A01CF
S11302E010920B01BF91AF919F918F917F916F916C
S11302F05F914F910F900FBE0F901F9018953D9AEC
S113030084E08093680080936D000E945300789489
S11303100E94E500FDCF5058BB27AA270E94A301E5
S11303200C947B020E946D0238F00E94740220F04B
S113033039F49F3F19F426F40C946A020EF4E09504
S1130340E7FB0C946402E92F0E948C0258F3BA175D
S1130350620773078407950720F079F4A6F50C94D7
S1130360AE020EF4E0950B2EBA2FA02D0B01B901AD
S113037090010C01CA01A0011124FF27591B99F017
S1130380593F50F4503E68F11A16F040A22F232F23
S1130390342F4427585FF3CF469537952795A79573
S11303A0F0405395C9F77EF41F16BA0B620B730B1A
S11303B0840BBAF09150A1F0FF0FBB1F661F771F8B
S11303C0881FC2F70EC0BA0F621F731F841F48F440
S11303D0879577956795B795F7959E3F08F0B0CFC9
S11303E09395880F08F09927EE0F979587950895B0
S11303F00E94940288F09F5798F0B92F9927B7511B
S1130400B0F0E1F0660F771F881F991F1AF0BA95B4
S1130410C9F714C0B13091F00E94AE02B1E0089562
S11304200C94AE02672F782F8827B85F39F0B93F54
S1130430CCF3869577956795B395D9F73EF4909567
S11304408095709561957F4F8F4F9F4F0895E894E5
S113045009C097FB3EF490958095709561957F4F08
S11304608F4F9F4F9923A9F0F92F96E9BB279395B6
S1130470F695879577956795B795F111F8CFFAF4C6
S1130480BB0F11F460FF1BC06F5F7F4F8F4F9F4FF7
S113049016C0882311F096E911C0772321F09EE855
S11304A0872F762F05C0662371F096E8862F70E0BB
S11304B060E02AF09A95660F771F881FDAF7880F95
S11304C09695879597F9089597F99F6780E870E066
S11304D060E008959FEF80EC089500240A941616B6
S11304E0170618060906089500240A94121613061E
S11304F0140605060895092E0394000C11F48823AC
S113050052F0BB0F40F4BF2B11F460FF04C06F5FC7
S11305107F4F8F4F9F4F089557FD9058440F551F9D
S113052059F05F3F71F04795880F97FB991F61F071
S11305309F3F79F087950895121613061406551FE8
S1130540F2CF4695F1DF08C0161617061806991F54
S1130550F1CF86957105610508940895E894BB2749
S113056066277727CB0197F908950E949402E8F053
S11305709E37E8F09639B8F49E3848F4672F782F00
S11305808827985FF9CF86957795679593959539E0
S1130590D0F3B62FB1706B0F711D811D20F48795B8
S11305A07795679593950C94D9020C94F4020C9466
S11305B0AF02882371F4772321F09850872B762F8C
S11305C007C0662311F499270DC09051862B70E063
S11305D060E02AF09A95660F771F881FDAF7880F74
S11305E09695879597F908959F3F31F0915020F49F
S11305F0879577956795B795880F911D96958795FB
S10B060097F90895F894FFCF67
S1070608400D03009A
S9030104F7
